S00C00004750494F2E73726563E9
S113000045C0000060C000005EC000005CC000008D
S11300105AC0000059C0000056C0000068C000006B
S113002052C0000050C000004EC000004CC0000090
S11300304AC0000048C0000046C0000044C00000A0
S113004042C0000040C000003EC000003CC00000B0
S11300503AC0000038C0000036C0000034C00000C0
S113006032C0000030C000002EC000002CC00000D0
S11300702AC0000028C0000026C0000024C00000E0
S113008022C0000020C000001EC0000011241FBEBA
S1130090CFEFD0E1DEBFCDBF11E0A0E0B1E0ECE5F1
S11300A0F1E000E00BBF02C007900D92A231B1074E
S11300B0D9F721E0A2E1B1E001C01D92A431B20759
S11300C0E1F723D049C09CCF1F920F920FB60F9235
S11300D011248F93F89481E08093130110921201FC
S11300E078948F910F900FBE0F901F9018951F92C8
S11300F00F920FB60F921124F89410921301789472
S11301000F900FBE0F901F9018958FEF8ABB12B8F7
S113011082E38ABF80E589BF88BF7894E0911201A9
S1130120F0E0E050FF4F80818BBB8091130181117F
S113013009C0809112018F5F80931201823110F007
S1130140109212012FED8EEA96E1215080409040EA
S10F0150E1F700C00000E2CFF894FFCFFC
S113015C3F065B4F666D7C077F67777C395E7971F0
S105016C088005
S9030000FC
